{
  "contractName": "Food",
  "abi": [
    {
      "inputs": [],
      "stateMutability": "nonpayable",
      "type": "constructor"
    },
    {
      "anonymous": false,
      "inputs": [
        {
          "indexed": false,
          "internalType": "uint256",
          "name": "id",
          "type": "uint256"
        },
        {
          "indexed": false,
          "internalType": "string",
          "name": "name",
          "type": "string"
        },
        {
          "indexed": false,
          "internalType": "uint256",
          "name": "price",
          "type": "uint256"
        },
        {
          "indexed": false,
          "internalType": "address",
          "name": "seller",
          "type": "address"
        }
      ],
      "name": "FoodItemCreated",
      "type": "event"
    },
    {
      "anonymous": false,
      "inputs": [
        {
          "indexed": false,
          "internalType": "uint256",
          "name": "id",
          "type": "uint256"
        },
        {
          "indexed": false,
          "internalType": "address",
          "name": "buyer",
          "type": "address"
        }
      ],
      "name": "FoodItemPurchased",
      "type": "event"
    },
    {
      "inputs": [],
      "name": "foodItemCount",
      "outputs": [
        {
          "internalType": "uint256",
          "name": "",
          "type": "uint256"
        }
      ],
      "stateMutability": "view",
      "type": "function"
    },
    {
      "inputs": [
        {
          "internalType": "uint256",
          "name": "",
          "type": "uint256"
        }
      ],
      "name": "foodItemIds",
      "outputs": [
        {
          "internalType": "uint256",
          "name": "",
          "type": "uint256"
        }
      ],
      "stateMutability": "view",
      "type": "function"
    },
    {
      "inputs": [
        {
          "internalType": "uint256",
          "name": "",
          "type": "uint256"
        }
      ],
      "name": "foodItems",
      "outputs": [
        {
          "internalType": "uint256",
          "name": "id",
          "type": "uint256"
        },
        {
          "internalType": "string",
          "name": "name",
          "type": "string"
        },
        {
          "internalType": "uint256",
          "name": "price",
          "type": "uint256"
        },
        {
          "internalType": "address payable",
          "name": "seller",
          "type": "address"
        },
        {
          "internalType": "address",
          "name": "buyer",
          "type": "address"
        },
        {
          "internalType": "bool",
          "name": "isSold",
          "type": "bool"
        }
      ],
      "stateMutability": "view",
      "type": "function"
    },
    {
      "inputs": [],
      "name": "owner",
      "outputs": [
        {
          "internalType": "address",
          "name": "",
          "type": "address"
        }
      ],
      "stateMutability": "view",
      "type": "function"
    },
    {
      "inputs": [
        {
          "internalType": "address",
          "name": "seller",
          "type": "address"
        },
        {
          "internalType": "string",
          "name": "_name",
          "type": "string"
        },
        {
          "internalType": "uint256",
          "name": "_price",
          "type": "uint256"
        }
      ],
      "name": "createFoodItem",
      "outputs": [],
      "stateMutability": "nonpayable",
      "type": "function"
    },
    {
      "inputs": [
        {
          "internalType": "uint256",
          "name": "_itemId",
          "type": "uint256"
        }
      ],
      "name": "purchaseFoodItem",
      "outputs": [],
      "stateMutability": "payable",
      "type": "function"
    },
    {
      "inputs": [],
      "name": "getAllFoodItems",
      "outputs": [
        {
          "components": [
            {
              "internalType": "uint256",
              "name": "id",
              "type": "uint256"
            },
            {
              "internalType": "string",
              "name": "name",
              "type": "string"
            },
            {
              "internalType": "uint256",
              "name": "price",
              "type": "uint256"
            },
            {
              "internalType": "address payable",
              "name": "seller",
              "type": "address"
            },
            {
              "internalType": "address",
              "name": "buyer",
              "type": "address"
            },
            {
              "internalType": "bool",
              "name": "isSold",
              "type": "bool"
            }
          ],
          "internalType": "struct Food.FoodItem[]",
          "name": "",
          "type": "tuple[]"
        }
      ],
      "stateMutability": "view",
      "type": "function"
    }
  ],
  "bytecode": "0x608060405234801561001057600080fd5b5033600360006101000a81548173ffffffffffffffffffffffffffffffffffffffff021916908373ffffffffffffffffffffffffffffffffffffffff160217905550611514806100616000396000f3fe6080604052600436106100705760003560e01c80638d2599da1161004e5780638d2599da146100fe5780638da5cb5b146101275780639694ebed14610152578063dce32fbf1461017d57610070565b80630ac52e651461007557806321bf7bd0146100b7578063872ce6dc146100d3575b600080fd5b34801561008157600080fd5b5061009c60048036038101906100979190610c9a565b6101ba565b6040516100ae969594939291906111cc565b60405180910390f35b6100d160048036038101906100cc9190610c9a565b6102cb565b005b3480156100df57600080fd5b506100e86104df565b6040516100f5919061113c565b60405180910390f35b34801561010a57600080fd5b5061012560048036038101906101209190610c33565b6104e5565b005b34801561013357600080fd5b5061013c6107d8565b604051610149919061103f565b60405180910390f35b34801561015e57600080fd5b506101676107fe565b604051610174919061105a565b60405180910390f35b34801561018957600080fd5b506101a4600480360381019061019f9190610c9a565b610a76565b6040516101b1919061113c565b60405180910390f35b60006020528060005260406000206000915090508060000154908060010180546101e390611397565b80601f016020809104026020016040519081016040528092919081815260200182805461020f90611397565b801561025c5780601f106102315761010080835404028352916020019161025c565b820191906000526020600020905b81548152906001019060200180831161023f57829003601f168201915b5050505050908060020154908060030160009054906101000a900473ffffffffffffffffffffffffffffffffffffffff16908060040160009054906101000a900473ffffffffffffffffffffffffffffffffffffffff16908060040160149054906101000a900460ff16905086565b6000806000838152602001908152602001600020905060008160000154101580156102fb57506001548160000154105b61033a576040517f08c379a00000000000000000000000000000000000000000000000000000000081526004016103319061109c565b60405180910390fd5b8060040160149054906101000a900460ff161561038c576040517f08c379a0000000000000000000000000000000000000000000000000000000008152600401610383906110fc565b60405180910390fd5b80600201543410156103d3576040517f08c379a00000000000000000000000000000000000000000000000000000000081526004016103ca906110dc565b60405180910390fd5b338160040160006101000a81548173ffffffffffffffffffffffffffffffffffffffff021916908373ffffffffffffffffffffffffffffffffffffffff16021790555060018160040160146101000a81548160ff0219169083151502179055508060030160009054906101000a900473ffffffffffffffffffffffffffffffffffffffff1673ffffffffffffffffffffffffffffffffffffffff166108fc82600201549081150290604051600060405180830381858888f193505050501580156104a1573d6000803e3d6000fd5b507f62e9cc17686cca82304a9d929259f975ca0cb6f10e288877b57de8a806419c0d82336040516104d3929190611157565b60405180910390a15050565b60015481565b600360009054906101000a900473ffffffffffffffffffffffffffffffffffffffff1673ffffffffffffffffffffffffffffffffffffffff163373ffffffffffffffffffffffffffffffffffffffff1614610575576040517f08c379a000000000000000000000000000000000000000000000000000000000815260040161056c9061111c565b60405180910390fd5b60008251116105b9576040517f08c379a00000000000000000000000000000000000000000000000000000000081526004016105b09061107c565b60405180910390fd5b600081116105fc576040517f08c379a00000000000000000000000000000000000000000000000000000000081526004016105f3906110bc565b60405180910390fd5b6040518060c0016040528060015481526020018381526020018281526020018473ffffffffffffffffffffffffffffffffffffffff168152602001600073ffffffffffffffffffffffffffffffffffffffff168152602001600015158152506000806001548152602001908152602001600020600082015181600001556020820151816001019080519060200190610695929190610a9a565b506040820151816002015560608201518160030160006101000a81548173ffffffffffffffffffffffffffffffffffffffff021916908373ffffffffffffffffffffffffffffffffffffffff16021790555060808201518160040160006101000a81548173ffffffffffffffffffffffffffffffffffffffff021916908373ffffffffffffffffffffffffffffffffffffffff16021790555060a08201518160040160146101000a81548160ff021916908315150217905550905050600260015490806001815401808255809150506001900390600052602060002001600090919091909150557f9366719d497b7e279a3180c27d99ca3ebf47f485615cdc8c89aa8e05d94f09266001548383866040516107b39493929190611180565b60405180910390a1600160008154809291906107ce906113c9565b9190505550505050565b600360009054906101000a900473ffffffffffffffffffffffffffffffffffffffff1681565b6060600060015467ffffffffffffffff811115610844577f4e487b7100000000000000000000000000000000000000000000000000000000600052604160045260246000fd5b60405190808252806020026020018201604052801561087d57816020015b61086a610b20565b8152602001906001900390816108625790505b50905060005b600154811015610a6e576000808281526020019081526020016000206040518060c0016040529081600082015481526020016001820180546108c490611397565b80601f01602080910402602001604051908101604052809291908181526020018280546108f090611397565b801561093d5780601f106109125761010080835404028352916020019161093d565b820191906000526020600020905b81548152906001019060200180831161092057829003601f168201915b50505050508152602001600282015481526020016003820160009054906101000a900473ffffffffffffffffffffffffffffffffffffffff1673ffffffffffffffffffffffffffffffffffffffff1673ffffffffffffffffffffffffffffffffffffffff1681526020016004820160009054906101000a900473ffffffffffffffffffffffffffffffffffffffff1673ffffffffffffffffffffffffffffffffffffffff1673ffffffffffffffffffffffffffffffffffffffff1681526020016004820160149054906101000a900460ff161515151581525050828281518110610a50577f4e487b7100000000000000000000000000000000000000000000000000000000600052603260045260246000fd5b60200260200101819052508080610a66906113c9565b915050610883565b508091505090565b60028181548110610a8657600080fd5b906000526020600020016000915090505481565b828054610aa690611397565b90600052602060002090601f016020900481019282610ac85760008555610b0f565b82601f10610ae157805160ff1916838001178555610b0f565b82800160010185558215610b0f579182015b82811115610b0e578251825591602001919060010190610af3565b5b509050610b1c9190610b84565b5090565b6040518060c00160405280600081526020016060815260200160008152602001600073ffffffffffffffffffffffffffffffffffffffff168152602001600073ffffffffffffffffffffffffffffffffffffffff1681526020016000151581525090565b5b80821115610b9d576000816000905550600101610b85565b5090565b6000610bb4610baf84611265565b611234565b905082815260208101848484011115610bcc57600080fd5b610bd7848285611355565b509392505050565b600081359050610bee816114b0565b92915050565b600082601f830112610c0557600080fd5b8135610c15848260208601610ba1565b91505092915050565b600081359050610c2d816114c7565b92915050565b600080600060608486031215610c4857600080fd5b6000610c5686828701610bdf565b935050602084013567ffffffffffffffff811115610c7357600080fd5b610c7f86828701610bf4565b9250506040610c9086828701610c1e565b9150509250925092565b600060208284031215610cac57600080fd5b6000610cba84828501610c1e565b91505092915050565b6000610ccf8383610f98565b905092915050565b610ce08161130d565b82525050565b610cef8161130d565b82525050565b610cfe816112fb565b82525050565b610d0d816112fb565b82525050565b6000610d1e826112a5565b610d2881856112c8565b935083602082028501610d3a85611295565b8060005b85811015610d765784840389528151610d578582610cc3565b9450610d62836112bb565b925060208a01995050600181019050610d3e565b50829750879550505050505092915050565b610d918161131f565b82525050565b610da08161131f565b82525050565b6000610db1826112b0565b610dbb81856112d9565b9350610dcb818560208601611364565b610dd48161149f565b840191505092915050565b6000610dea826112b0565b610df481856112ea565b9350610e04818560208601611364565b610e0d8161149f565b840191505092915050565b6000610e256014836112ea565b91507f4e616d652063616e6e6f7420626520656d7074790000000000000000000000006000830152602082019050919050565b6000610e65600f836112ea565b91507f496e76616c6964206974656d20696400000000000000000000000000000000006000830152602082019050919050565b6000610ea5601f836112ea565b91507f5072696365206d7573742062652067726561746572207468616e207a65726f006000830152602082019050919050565b6000610ee56012836112ea565b91507f496e73756666696369656e742066756e647300000000000000000000000000006000830152602082019050919050565b6000610f256014836112ea565b91507f4974656d20697320616c726561647920736f6c640000000000000000000000006000830152602082019050919050565b6000610f656016836112ea565b91507f4e6f742074686520636f6e7472616374206f776e6572000000000000000000006000830152602082019050919050565b600060c083016000830151610fb06000860182611021565b5060208301518482036020860152610fc88282610da6565b9150506040830151610fdd6040860182611021565b506060830151610ff06060860182610cd7565b5060808301516110036080860182610cf5565b5060a083015161101660a0860182610d88565b508091505092915050565b61102a8161134b565b82525050565b6110398161134b565b82525050565b60006020820190506110546000830184610d04565b92915050565b600060208201905081810360008301526110748184610d13565b905092915050565b6000602082019050818103600083015261109581610e18565b9050919050565b600060208201905081810360008301526110b581610e58565b9050919050565b600060208201905081810360008301526110d581610e98565b9050919050565b600060208201905081810360008301526110f581610ed8565b9050919050565b6000602082019050818103600083015261111581610f18565b9050919050565b6000602082019050818103600083015261113581610f58565b9050919050565b60006020820190506111516000830184611030565b92915050565b600060408201905061116c6000830185611030565b6111796020830184610d04565b9392505050565b60006080820190506111956000830187611030565b81810360208301526111a78186610ddf565b90506111b66040830185611030565b6111c36060830184610d04565b95945050505050565b600060c0820190506111e16000830189611030565b81810360208301526111f38188610ddf565b90506112026040830187611030565b61120f6060830186610ce6565b61121c6080830185610d04565b61122960a0830184610d97565b979650505050505050565b6000604051905081810181811067ffffffffffffffff8211171561125b5761125a611470565b5b8060405250919050565b600067ffffffffffffffff8211156112805761127f611470565b5b601f19601f8301169050602081019050919050565b6000819050602082019050919050565b600081519050919050565b600081519050919050565b6000602082019050919050565b600082825260208201905092915050565b600082825260208201905092915050565b600082825260208201905092915050565b60006113068261132b565b9050919050565b60006113188261132b565b9050919050565b60008115159050919050565b600073ffffffffffffffffffffffffffffffffffffffff82169050919050565b6000819050919050565b82818337600083830152505050565b60005b83811015611382578082015181840152602081019050611367565b83811115611391576000848401525b50505050565b600060028204905060018216806113af57607f821691505b602082108114156113c3576113c2611441565b5b50919050565b60006113d48261134b565b91507fffffffffffffffffffffffffffffffffffffffffffffffffffffffffffffffff82141561140757611406611412565b5b600182019050919050565b7f4e487b7100000000000000000000000000000000000000000000000000000000600052601160045260246000fd5b7f4e487b7100000000000000000000000000000000000000000000000000000000600052602260045260246000fd5b7f4e487b7100000000000000000000000000000000000000000000000000000000600052604160045260246000fd5b6000601f19601f8301169050919050565b6114b9816112fb565b81146114c457600080fd5b50565b6114d08161134b565b81146114db57600080fd5b5056fea26469706673582212200d5629e54ed5f616a0ed97756a75a107569a54a61e55ab6bb9a369ced016685064736f6c63430008000033",
  "immutableReferences": {},
  "source": "// SPDX-License-Identifier: MIT\r\npragma solidity ^0.8.0;\r\n\r\ncontract Food {\r\n    mapping(uint => FoodItem) public foodItems;\r\n    uint public foodItemCount;\r\n    uint[] public foodItemIds;\r\n\r\n    struct FoodItem {\r\n        uint id;\r\n        string name;\r\n        uint price;\r\n        address payable seller;\r\n        address buyer;\r\n        bool isSold;\r\n    }\r\n\r\n    event FoodItemCreated(uint id, string name, uint price, address seller);\r\n    event FoodItemPurchased(uint id, address buyer);\r\n\r\n    address public owner;\r\n\r\n    constructor() {\r\n        owner = msg.sender;\r\n    }\r\n\r\n    // Modifier to restrict certain actions to the owner, if needed\r\n    modifier onlyOwner() {\r\n        require(msg.sender == owner, \"Not the contract owner\");\r\n        _;\r\n    }\r\n\r\n    // Function to create a new food item, accessible to anyone\r\n    function createFoodItem(address seller, string memory _name, uint _price) public onlyOwner {\r\n        require(bytes(_name).length > 0, \"Name cannot be empty\");\r\n        require(_price > 0, \"Price must be greater than zero\");\r\n\r\n        foodItems[foodItemCount] = FoodItem(foodItemCount, _name, _price, payable(seller), address(0), false);\r\n        foodItemIds.push(foodItemCount);\r\n\r\n        emit FoodItemCreated(foodItemCount, _name, _price, seller);\r\n\r\n        foodItemCount++;\r\n    }\r\n\r\n    // Payable function for a buyer to purchase a food item\r\n    function purchaseFoodItem(uint _itemId) public payable {\r\n        FoodItem storage item = foodItems[_itemId];\r\n\r\n        require(item.id >= 0 && item.id < foodItemCount, \"Invalid item id\");\r\n        require(!item.isSold, \"Item is already sold\");\r\n        require(msg.value >= item.price, \"Insufficient funds\");\r\n\r\n        item.buyer = msg.sender; // Set the buyer as the caller of this function\r\n        item.isSold = true;\r\n\r\n        // Transfer the funds to the seller\r\n        item.seller.transfer(item.price);\r\n\r\n        emit FoodItemPurchased(_itemId, msg.sender);\r\n    }\r\n\r\n    // Function to retrieve all food items\r\n    function getAllFoodItems() public view returns (FoodItem[] memory) {\r\n        FoodItem[] memory items = new FoodItem[](foodItemCount);\r\n        for (uint i = 0; i < foodItemCount; i++) {\r\n            items[i] = foodItems[i];\r\n        }\r\n        return items;\r\n    }\r\n}\r\n",
  "sourcePath": "C:\\Users\\sayfs\\Desktop\\Web3 food market\\server\\contracts\\Food.sol",
  "compiler": {
    "name": "solc",
    "version": "0.8.0+commit.c7dfd78e.Emscripten.clang"
  },
  "schemaVersion": "3.4.16",
  "updatedAt": "2024-11-06T09:38:21.585Z",
  "devdoc": {
    "kind": "dev",
    "methods": {},
    "version": 1
  },
  "userdoc": {
    "kind": "user",
    "methods": {},
    "version": 1
  }
}