{
  "contractName": "FoodNFT",
  "abi": [
    {
      "anonymous": false,
      "inputs": [
        {
          "indexed": false,
          "internalType": "string",
          "name": "contractAddress",
          "type": "string"
        },
        {
          "indexed": false,
          "internalType": "string",
          "name": "name",
          "type": "string"
        },
        {
          "indexed": false,
          "internalType": "uint256",
          "name": "price",
          "type": "uint256"
        },
        {
          "indexed": false,
          "internalType": "address",
          "name": "seller",
          "type": "address"
        }
      ],
      "name": "FoodItemCreated",
      "type": "event"
    },
    {
      "anonymous": false,
      "inputs": [
        {
          "indexed": false,
          "internalType": "address",
          "name": "buyer",
          "type": "address"
        }
      ],
      "name": "FoodItemPurchased",
      "type": "event"
    },
    {
      "inputs": [],
      "name": "foodItem",
      "outputs": [
        {
          "internalType": "string",
          "name": "contractAddress",
          "type": "string"
        },
        {
          "internalType": "string",
          "name": "name",
          "type": "string"
        },
        {
          "internalType": "uint256",
          "name": "price",
          "type": "uint256"
        },
        {
          "internalType": "address payable",
          "name": "seller",
          "type": "address"
        },
        {
          "internalType": "address",
          "name": "buyer",
          "type": "address"
        },
        {
          "internalType": "bool",
          "name": "isSold",
          "type": "bool"
        }
      ],
      "stateMutability": "view",
      "type": "function"
    },
    {
      "inputs": [
        {
          "internalType": "string",
          "name": "_contractAddress",
          "type": "string"
        },
        {
          "internalType": "string",
          "name": "_name",
          "type": "string"
        },
        {
          "internalType": "uint256",
          "name": "_price",
          "type": "uint256"
        }
      ],
      "name": "createFoodItem",
      "outputs": [],
      "stateMutability": "nonpayable",
      "type": "function"
    },
    {
      "inputs": [
        {
          "internalType": "uint256",
          "name": "_itemId",
          "type": "uint256"
        }
      ],
      "name": "purchaseFoodItem",
      "outputs": [],
      "stateMutability": "payable",
      "type": "function"
    }
  ],
  "bytecode": "0x608060405234801561001057600080fd5b50610cdc806100206000396000f3fe6080604052600436106100345760003560e01c806321bf7bd01461003957806348efab7014610055578063747aa21914610085575b600080fd5b610053600480360381019061004e9190610795565b6100ae565b005b34801561006157600080fd5b5061006a610253565b60405161007c969594939291906109b0565b60405180910390f35b34801561009157600080fd5b506100ac60048036038101906100a79190610716565b6103da565b005b60008060040160149054906101000a900460ff1615610102576040517f08c379a00000000000000000000000000000000000000000000000000000000081526004016100f990610a7f565b60405180910390fd5b8060020154341015610149576040517f08c379a000000000000000000000000000000000000000000000000000000000815260040161014090610a5f565b60405180910390fd5b338160040160006101000a81548173ffffffffffffffffffffffffffffffffffffffff021916908373ffffffffffffffffffffffffffffffffffffffff16021790555060018160040160146101000a81548160ff0219169083151502179055508060030160009054906101000a900473ffffffffffffffffffffffffffffffffffffffff1673ffffffffffffffffffffffffffffffffffffffff166108fc82600201549081150290604051600060405180830381858888f19350505050158015610217573d6000803e3d6000fd5b507f0f0a8f28933142b519dabdef8e330dfad2df134ac725e576d72295fd6f00e9c1336040516102479190610942565b60405180910390a15050565b600080600001805461026490610bee565b80601f016020809104026020016040519081016040528092919081815260200182805461029090610bee565b80156102dd5780601f106102b2576101008083540402835291602001916102dd565b820191906000526020600020905b8154815290600101906020018083116102c057829003601f168201915b5050505050908060010180546102f290610bee565b80601f016020809104026020016040519081016040528092919081815260200182805461031e90610bee565b801561036b5780601f106103405761010080835404028352916020019161036b565b820191906000526020600020905b81548152906001019060200180831161034e57829003601f168201915b5050505050908060020154908060030160009054906101000a900473ffffffffffffffffffffffffffffffffffffffff16908060040160009054906101000a900473ffffffffffffffffffffffffffffffffffffffff16908060040160149054906101000a900460ff16905086565b600082511161041e576040517f08c379a000000000000000000000000000000000000000000000000000000000815260040161041590610a1f565b60405180910390fd5b60008111610461576040517f08c379a000000000000000000000000000000000000000000000000000000000815260040161045890610a3f565b60405180910390fd5b6040518060c001604052808481526020018381526020018281526020013373ffffffffffffffffffffffffffffffffffffffff168152602001600073ffffffffffffffffffffffffffffffffffffffff168152602001600015158152506000808201518160000190805190602001906104db9291906105f6565b5060208201518160010190805190602001906104f89291906105f6565b506040820151816002015560608201518160030160006101000a81548173ffffffffffffffffffffffffffffffffffffffff021916908373ffffffffffffffffffffffffffffffffffffffff16021790555060808201518160040160006101000a81548173ffffffffffffffffffffffffffffffffffffffff021916908373ffffffffffffffffffffffffffffffffffffffff16021790555060a08201518160040160146101000a81548160ff0219169083151502179055509050507f7ff5e745181f59096e362276df7d37433806b680a4f113c16f8812af8dc852bb838383336040516105e9949392919061095d565b60405180910390a1505050565b82805461060290610bee565b90600052602060002090601f016020900481019282610624576000855561066b565b82601f1061063d57805160ff191683800117855561066b565b8280016001018555821561066b579182015b8281111561066a57825182559160200191906001019061064f565b5b509050610678919061067c565b5090565b5b8082111561069557600081600090555060010161067d565b5090565b60006106ac6106a784610ad0565b610a9f565b9050828152602081018484840111156106c457600080fd5b6106cf848285610bac565b509392505050565b600082601f8301126106e857600080fd5b81356106f8848260208601610699565b91505092915050565b60008135905061071081610c8f565b92915050565b60008060006060848603121561072b57600080fd5b600084013567ffffffffffffffff81111561074557600080fd5b610751868287016106d7565b935050602084013567ffffffffffffffff81111561076e57600080fd5b61077a868287016106d7565b925050604061078b86828701610701565b9150509250925092565b6000602082840312156107a757600080fd5b60006107b584828501610701565b91505092915050565b6107c781610b76565b82525050565b6107d681610b2e565b82525050565b6107e581610b1c565b82525050565b6107f481610b40565b82525050565b600061080582610b00565b61080f8185610b0b565b935061081f818560208601610bbb565b61082881610c7e565b840191505092915050565b6000610840601483610b0b565b91507f4e616d652063616e6e6f7420626520656d7074790000000000000000000000006000830152602082019050919050565b6000610880601f83610b0b565b91507f5072696365206d7573742062652067726561746572207468616e207a65726f006000830152602082019050919050565b60006108c0601283610b0b565b91507f496e73756666696369656e742066756e647300000000000000000000000000006000830152602082019050919050565b6000610900601483610b0b565b91507f4974656d20697320616c726561647920736f6c640000000000000000000000006000830152602082019050919050565b61093c81610b6c565b82525050565b600060208201905061095760008301846107dc565b92915050565b6000608082019050818103600083015261097781876107fa565b9050818103602083015261098b81866107fa565b905061099a6040830185610933565b6109a760608301846107be565b95945050505050565b600060c08201905081810360008301526109ca81896107fa565b905081810360208301526109de81886107fa565b90506109ed6040830187610933565b6109fa60608301866107cd565b610a0760808301856107dc565b610a1460a08301846107eb565b979650505050505050565b60006020820190508181036000830152610a3881610833565b9050919050565b60006020820190508181036000830152610a5881610873565b9050919050565b60006020820190508181036000830152610a78816108b3565b9050919050565b60006020820190508181036000830152610a98816108f3565b9050919050565b6000604051905081810181811067ffffffffffffffff82111715610ac657610ac5610c4f565b5b8060405250919050565b600067ffffffffffffffff821115610aeb57610aea610c4f565b5b601f19601f8301169050602081019050919050565b600081519050919050565b600082825260208201905092915050565b6000610b2782610b4c565b9050919050565b6000610b3982610b4c565b9050919050565b60008115159050919050565b600073ffffffffffffffffffffffffffffffffffffffff82169050919050565b6000819050919050565b6000610b8182610b88565b9050919050565b6000610b9382610b9a565b9050919050565b6000610ba582610b4c565b9050919050565b82818337600083830152505050565b60005b83811015610bd9578082015181840152602081019050610bbe565b83811115610be8576000848401525b50505050565b60006002820490506001821680610c0657607f821691505b60208210811415610c1a57610c19610c20565b5b50919050565b7f4e487b7100000000000000000000000000000000000000000000000000000000600052602260045260246000fd5b7f4e487b7100000000000000000000000000000000000000000000000000000000600052604160045260246000fd5b6000601f19601f8301169050919050565b610c9881610b6c565b8114610ca357600080fd5b5056fea26469706673582212206c3c1396599c27656f9188099f8270296ccef2729d6f585d35b9cc4a4d65720c64736f6c63430008000033",
  "immutableReferences": {},
  "source": "// SPDX-License-Identifier: MIT\r\npragma solidity ^0.8.0;\r\n\r\ncontract FoodNFT {\r\n    struct FoodItem {\r\n        string contractAddress;\r\n        string name;\r\n        uint price;\r\n        address payable seller;\r\n        address buyer;\r\n        bool isSold;\r\n    }\r\n\r\n    FoodItem public foodItem;\r\n\r\n\r\n    event FoodItemCreated(string contractAddress, string name, uint price, address seller);\r\n    event FoodItemPurchased( address buyer);\r\n\r\n    function createFoodItem(string memory _contractAddress,string memory _name, uint _price) public {\r\n        require(bytes(_name).length > 0, \"Name cannot be empty\");\r\n        require(_price > 0, \"Price must be greater than zero\");\r\n\r\n\r\n        foodItem = FoodItem(_contractAddress, _name, _price, payable(msg.sender), address(0), false);\r\n\r\n        emit FoodItemCreated(_contractAddress, _name, _price, payable(msg.sender));\r\n    }\r\n\r\n    function purchaseFoodItem(uint _itemId) public payable {\r\n        FoodItem storage item = foodItem;\r\n\r\n\r\n        require(!item.isSold, \"Item is already sold\");\r\n        require(msg.value >= item.price, \"Insufficient funds\");\r\n\r\n        item.buyer = msg.sender;\r\n        item.isSold = true;\r\n        item.seller.transfer(item.price); // Transfer the price to the seller\r\n        emit FoodItemPurchased(msg.sender);\r\n    }\r\n}\r\n",
  "sourcePath": "C:\\Users\\sayfs\\Desktop\\Web3 food market\\server\\contracts\\FoodNFT.sol",
  "compiler": {
    "name": "solc",
    "version": "0.8.0+commit.c7dfd78e.Emscripten.clang"
  },
  "schemaVersion": "3.4.16",
  "updatedAt": "2024-08-01T13:32:47.472Z",
  "devdoc": {
    "kind": "dev",
    "methods": {},
    "version": 1
  },
  "userdoc": {
    "kind": "user",
    "methods": {},
    "version": 1
  }
}