{
  "contractName": "Food",
  "abi": [
    {
      "anonymous": false,
      "inputs": [
        {
          "indexed": false,
          "internalType": "uint256",
          "name": "id",
          "type": "uint256"
        },
        {
          "indexed": false,
          "internalType": "string",
          "name": "contractAddress",
          "type": "string"
        },
        {
          "indexed": false,
          "internalType": "string",
          "name": "name",
          "type": "string"
        },
        {
          "indexed": false,
          "internalType": "uint256",
          "name": "price",
          "type": "uint256"
        },
        {
          "indexed": false,
          "internalType": "address",
          "name": "seller",
          "type": "address"
        }
      ],
      "name": "FoodItemCreated",
      "type": "event"
    },
    {
      "anonymous": false,
      "inputs": [
        {
          "indexed": false,
          "internalType": "uint256",
          "name": "id",
          "type": "uint256"
        },
        {
          "indexed": false,
          "internalType": "address",
          "name": "buyer",
          "type": "address"
        }
      ],
      "name": "FoodItemPurchased",
      "type": "event"
    },
    {
      "inputs": [],
      "name": "foodItemCount",
      "outputs": [
        {
          "internalType": "uint256",
          "name": "",
          "type": "uint256"
        }
      ],
      "stateMutability": "view",
      "type": "function",
      "constant": true
    },
    {
      "inputs": [
        {
          "internalType": "uint256",
          "name": "",
          "type": "uint256"
        }
      ],
      "name": "foodItems",
      "outputs": [
        {
          "internalType": "uint256",
          "name": "id",
          "type": "uint256"
        },
        {
          "internalType": "string",
          "name": "contractAddress",
          "type": "string"
        },
        {
          "internalType": "string",
          "name": "name",
          "type": "string"
        },
        {
          "internalType": "uint256",
          "name": "price",
          "type": "uint256"
        },
        {
          "internalType": "address payable",
          "name": "seller",
          "type": "address"
        },
        {
          "internalType": "address",
          "name": "buyer",
          "type": "address"
        },
        {
          "internalType": "bool",
          "name": "isSold",
          "type": "bool"
        }
      ],
      "stateMutability": "view",
      "type": "function",
      "constant": true
    },
    {
      "inputs": [
        {
          "internalType": "string",
          "name": "_contractAddress",
          "type": "string"
        },
        {
          "internalType": "string",
          "name": "_name",
          "type": "string"
        },
        {
          "internalType": "uint256",
          "name": "_price",
          "type": "uint256"
        }
      ],
      "name": "createFoodItem",
      "outputs": [],
      "stateMutability": "nonpayable",
      "type": "function"
    },
    {
      "inputs": [
        {
          "internalType": "uint256",
          "name": "_itemId",
          "type": "uint256"
        }
      ],
      "name": "purchaseFoodItem",
      "outputs": [],
      "stateMutability": "payable",
      "type": "function",
      "payable": true
    }
  ],
  "bytecode": "0x608060405234801561001057600080fd5b50610f10806100206000396000f3fe60806040526004361061003f5760003560e01c80630ac52e651461004457806321bf7bd014610087578063747aa219146100a3578063872ce6dc146100cc575b600080fd5b34801561005057600080fd5b5061006b600480360381019061006691906108ac565b6100f7565b60405161007e9796959493929190610bde565b60405180910390f35b6100a1600480360381019061009c91906108ac565b610296565b005b3480156100af57600080fd5b506100ca60048036038101906100c5919061082d565b6104aa565b005b3480156100d857600080fd5b506100e1610707565b6040516100ee9190610b39565b60405180910390f35b600060205280600052604060002060009150905080600001549080600101805461012090610daa565b80601f016020809104026020016040519081016040528092919081815260200182805461014c90610daa565b80156101995780601f1061016e57610100808354040283529160200191610199565b820191906000526020600020905b81548152906001019060200180831161017c57829003601f168201915b5050505050908060020180546101ae90610daa565b80601f01602080910402602001604051908101604052809291908181526020018280546101da90610daa565b80156102275780601f106101fc57610100808354040283529160200191610227565b820191906000526020600020905b81548152906001019060200180831161020a57829003601f168201915b5050505050908060030154908060040160009054906101000a900473ffffffffffffffffffffffffffffffffffffffff16908060050160009054906101000a900473ffffffffffffffffffffffffffffffffffffffff16908060050160149054906101000a900460ff16905087565b60008060008381526020019081526020016000209050600081600001541180156102c65750600154816000015411155b610305576040517f08c379a00000000000000000000000000000000000000000000000000000000081526004016102fc90610ab9565b60405180910390fd5b8060050160149054906101000a900460ff1615610357576040517f08c379a000000000000000000000000000000000000000000000000000000000815260040161034e90610b19565b60405180910390fd5b806003015434101561039e576040517f08c379a000000000000000000000000000000000000000000000000000000000815260040161039590610af9565b60405180910390fd5b338160050160006101000a81548173ffffffffffffffffffffffffffffffffffffffff021916908373ffffffffffffffffffffffffffffffffffffffff16021790555060018160050160146101000a81548160ff0219169083151502179055508060040160009054906101000a900473ffffffffffffffffffffffffffffffffffffffff1673ffffffffffffffffffffffffffffffffffffffff166108fc82600301549081150290604051600060405180830381858888f1935050505015801561046c573d6000803e3d6000fd5b507f62e9cc17686cca82304a9d929259f975ca0cb6f10e288877b57de8a806419c0d823360405161049e929190610b54565b60405180910390a15050565b60008251116104ee576040517f08c379a00000000000000000000000000000000000000000000000000000000081526004016104e590610a99565b60405180910390fd5b60008111610531576040517f08c379a000000000000000000000000000000000000000000000000000000000815260040161052890610ad9565b60405180910390fd5b6040518060e0016040528060015481526020018481526020018381526020018281526020013373ffffffffffffffffffffffffffffffffffffffff168152602001600073ffffffffffffffffffffffffffffffffffffffff1681526020016000151581525060008060015481526020019081526020016000206000820151816000015560208201518160010190805190602001906105d092919061070d565b5060408201518160020190805190602001906105ed92919061070d565b506060820151816003015560808201518160040160006101000a81548173ffffffffffffffffffffffffffffffffffffffff021916908373ffffffffffffffffffffffffffffffffffffffff16021790555060a08201518160050160006101000a81548173ffffffffffffffffffffffffffffffffffffffff021916908373ffffffffffffffffffffffffffffffffffffffff16021790555060c08201518160050160146101000a81548160ff0219169083151502179055509050507f3eef791dfa951c17e10a6ad2b5b0088da0bfe58ff13fee5810d0f2a8f2d4270c600154848484336040516106e2959493929190610b7d565b60405180910390a1600160008154809291906106fd90610ddc565b9190505550505050565b60015481565b82805461071990610daa565b90600052602060002090601f01602090048101928261073b5760008555610782565b82601f1061075457805160ff1916838001178555610782565b82800160010185558215610782579182015b82811115610781578251825591602001919060010190610766565b5b50905061078f9190610793565b5090565b5b808211156107ac576000816000905550600101610794565b5090565b60006107c36107be84610c8c565b610c5b565b9050828152602081018484840111156107db57600080fd5b6107e6848285610d68565b509392505050565b600082601f8301126107ff57600080fd5b813561080f8482602086016107b0565b91505092915050565b60008135905061082781610ec3565b92915050565b60008060006060848603121561084257600080fd5b600084013567ffffffffffffffff81111561085c57600080fd5b610868868287016107ee565b935050602084013567ffffffffffffffff81111561088557600080fd5b610891868287016107ee565b92505060406108a286828701610818565b9150509250925092565b6000602082840312156108be57600080fd5b60006108cc84828501610818565b91505092915050565b6108de81610d32565b82525050565b6108ed81610cea565b82525050565b6108fc81610cd8565b82525050565b61090b81610cfc565b82525050565b600061091c82610cbc565b6109268185610cc7565b9350610936818560208601610d77565b61093f81610eb2565b840191505092915050565b6000610957601483610cc7565b91507f4e616d652063616e6e6f7420626520656d7074790000000000000000000000006000830152602082019050919050565b6000610997600f83610cc7565b91507f496e76616c6964206974656d20696400000000000000000000000000000000006000830152602082019050919050565b60006109d7601f83610cc7565b91507f5072696365206d7573742062652067726561746572207468616e207a65726f006000830152602082019050919050565b6000610a17601283610cc7565b91507f496e73756666696369656e742066756e647300000000000000000000000000006000830152602082019050919050565b6000610a57601483610cc7565b91507f4974656d20697320616c726561647920736f6c640000000000000000000000006000830152602082019050919050565b610a9381610d28565b82525050565b60006020820190508181036000830152610ab28161094a565b9050919050565b60006020820190508181036000830152610ad28161098a565b9050919050565b60006020820190508181036000830152610af2816109ca565b9050919050565b60006020820190508181036000830152610b1281610a0a565b9050919050565b60006020820190508181036000830152610b3281610a4a565b9050919050565b6000602082019050610b4e6000830184610a8a565b92915050565b6000604082019050610b696000830185610a8a565b610b7660208301846108f3565b9392505050565b600060a082019050610b926000830188610a8a565b8181036020830152610ba48187610911565b90508181036040830152610bb88186610911565b9050610bc76060830185610a8a565b610bd460808301846108d5565b9695505050505050565b600060e082019050610bf3600083018a610a8a565b8181036020830152610c058189610911565b90508181036040830152610c198188610911565b9050610c286060830187610a8a565b610c3560808301866108e4565b610c4260a08301856108f3565b610c4f60c0830184610902565b98975050505050505050565b6000604051905081810181811067ffffffffffffffff82111715610c8257610c81610e83565b5b8060405250919050565b600067ffffffffffffffff821115610ca757610ca6610e83565b5b601f19601f8301169050602081019050919050565b600081519050919050565b600082825260208201905092915050565b6000610ce382610d08565b9050919050565b6000610cf582610d08565b9050919050565b60008115159050919050565b600073ffffffffffffffffffffffffffffffffffffffff82169050919050565b6000819050919050565b6000610d3d82610d44565b9050919050565b6000610d4f82610d56565b9050919050565b6000610d6182610d08565b9050919050565b82818337600083830152505050565b60005b83811015610d95578082015181840152602081019050610d7a565b83811115610da4576000848401525b50505050565b60006002820490506001821680610dc257607f821691505b60208210811415610dd657610dd5610e54565b5b50919050565b6000610de782610d28565b91507fffffffffffffffffffffffffffffffffffffffffffffffffffffffffffffffff821415610e1a57610e19610e25565b5b600182019050919050565b7f4e487b7100000000000000000000000000000000000000000000000000000000600052601160045260246000fd5b7f4e487b7100000000000000000000000000000000000000000000000000000000600052602260045260246000fd5b7f4e487b7100000000000000000000000000000000000000000000000000000000600052604160045260246000fd5b6000601f19601f8301169050919050565b610ecc81610d28565b8114610ed757600080fd5b5056fea2646970667358221220358a23651d1ed6e51a85b1ec375ce8172bc63e8b0b103db98000b4276edd305564736f6c63430008000033",
  "immutableReferences": {},
  "source": "// SPDX-License-Identifier: MIT\r\npragma solidity ^0.8.0;\r\n\r\ncontract Food {\r\n    struct FoodItem {\r\n        uint id;\r\n        string contractAddress;\r\n        string name;\r\n        uint price;\r\n        address payable seller;\r\n        address buyer;\r\n        bool isSold;\r\n    }\r\n\r\n    mapping(uint => FoodItem) public foodItems;\r\n    uint public foodItemCount;\r\n\r\n    event FoodItemCreated(uint id,string contractAddress, string name, uint price, address seller);\r\n    event FoodItemPurchased(uint id, address buyer);\r\n\r\n    function createFoodItem(string memory _contractAddress,string memory _name, uint _price) public {\r\n        require(bytes(_name).length > 0, \"Name cannot be empty\");\r\n        require(_price > 0, \"Price must be greater than zero\");\r\n\r\n\r\n        foodItems[foodItemCount] = FoodItem(foodItemCount,_contractAddress, _name, _price, payable(msg.sender), address(0), false);\r\n\r\n        emit FoodItemCreated(foodItemCount,_contractAddress, _name, _price, payable(msg.sender));\r\n\r\n        foodItemCount++;\r\n    }\r\n\r\n    function purchaseFoodItem(uint _itemId) public payable {\r\n        FoodItem storage item = foodItems[_itemId];\r\n\r\n        require(item.id > 0 && item.id <= foodItemCount, \"Invalid item id\");\r\n        require(!item.isSold, \"Item is already sold\");\r\n        require(msg.value >= item.price, \"Insufficient funds\");\r\n\r\n        item.buyer = msg.sender;\r\n        item.isSold = true;\r\n        item.seller.transfer(item.price); // Transfer the price to the seller\r\n        emit FoodItemPurchased(_itemId, msg.sender);\r\n    }\r\n}\r\n",
  "sourcePath": "C:\\Users\\sayfs\\Desktop\\Web3 food market\\contracts\\Food.sol",
  "compiler": {
    "name": "solc",
    "version": "0.8.0+commit.c7dfd78e.Emscripten.clang"
  },
  "schemaVersion": "3.4.16",
  "updatedAt": "2024-07-23T12:53:06.014Z",
  "networkType": "ethereum",
  "devdoc": {
    "kind": "dev",
    "methods": {},
    "version": 1
  },
  "userdoc": {
    "kind": "user",
    "methods": {},
    "version": 1
  }
}