{
  "contractName": "Food",
  "abi": [
    {
      "anonymous": false,
      "inputs": [
        {
          "indexed": false,
          "internalType": "uint256",
          "name": "id",
          "type": "uint256"
        },
        {
          "indexed": false,
          "internalType": "string",
          "name": "name",
          "type": "string"
        },
        {
          "indexed": false,
          "internalType": "uint256",
          "name": "price",
          "type": "uint256"
        },
        {
          "indexed": false,
          "internalType": "address",
          "name": "seller",
          "type": "address"
        },
        {
          "indexed": false,
          "internalType": "bool",
          "name": "isSold",
          "type": "bool"
        }
      ],
      "name": "FoodItemCreated",
      "type": "event"
    },
    {
      "anonymous": false,
      "inputs": [
        {
          "indexed": false,
          "internalType": "uint256",
          "name": "id",
          "type": "uint256"
        },
        {
          "indexed": false,
          "internalType": "address",
          "name": "buyer",
          "type": "address"
        }
      ],
      "name": "FoodItemPurchased",
      "type": "event"
    },
    {
      "inputs": [],
      "name": "foodItemCount",
      "outputs": [
        {
          "internalType": "uint256",
          "name": "",
          "type": "uint256"
        }
      ],
      "stateMutability": "view",
      "type": "function"
    },
    {
      "inputs": [
        {
          "internalType": "uint256",
          "name": "",
          "type": "uint256"
        }
      ],
      "name": "foodItems",
      "outputs": [
        {
          "internalType": "uint256",
          "name": "id",
          "type": "uint256"
        },
        {
          "internalType": "string",
          "name": "name",
          "type": "string"
        },
        {
          "internalType": "uint256",
          "name": "price",
          "type": "uint256"
        },
        {
          "internalType": "address",
          "name": "seller",
          "type": "address"
        },
        {
          "internalType": "address",
          "name": "buyer",
          "type": "address"
        },
        {
          "internalType": "bool",
          "name": "isSold",
          "type": "bool"
        }
      ],
      "stateMutability": "view",
      "type": "function"
    },
    {
      "inputs": [
        {
          "internalType": "string",
          "name": "_name",
          "type": "string"
        },
        {
          "internalType": "uint256",
          "name": "_price",
          "type": "uint256"
        }
      ],
      "name": "createFoodItem",
      "outputs": [],
      "stateMutability": "nonpayable",
      "type": "function"
    }
  ],
  "bytecode": "0x608060405234801561001057600080fd5b50610a79806100206000396000f3fe608060405234801561001057600080fd5b50600436106100415760003560e01c80630ac52e6514610046578063432b8b9f1461007b578063872ce6dc14610097575b600080fd5b610060600480360381019061005b91906104f3565b6100b5565b60405161007296959493929190610624565b60405180910390f35b610095600480360381019061009091906107c1565b6101c6565b005b61009f610400565b6040516100ac919061081d565b60405180910390f35b60006020528060005260406000206000915090508060000154908060010180546100de90610867565b80601f016020809104026020016040519081016040528092919081815260200182805461010a90610867565b80156101575780601f1061012c57610100808354040283529160200191610157565b820191906000526020600020905b81548152906001019060200180831161013a57829003601f168201915b5050505050908060020154908060030160009054906101000a900473ffffffffffffffffffffffffffffffffffffffff16908060040160009054906101000a900473ffffffffffffffffffffffffffffffffffffffff16908060040160149054906101000a900460ff16905086565b600082511161020a576040517f08c379a0000000000000000000000000000000000000000000000000000000008152600401610201906108e5565b60405180910390fd5b6000811161024d576040517f08c379a000000000000000000000000000000000000000000000000000000000815260040161024490610951565b60405180910390fd5b60016000815480929190610260906109a0565b91905055506040518060c0016040528060015481526020018381526020018281526020013373ffffffffffffffffffffffffffffffffffffffff168152602001600073ffffffffffffffffffffffffffffffffffffffff1681526020016000151581525060008060015481526020019081526020016000206000820151816000015560208201518160010190805190602001906102fe929190610406565b506040820151816002015560608201518160030160006101000a81548173ffffffffffffffffffffffffffffffffffffffff021916908373ffffffffffffffffffffffffffffffffffffffff16021790555060808201518160040160006101000a81548173ffffffffffffffffffffffffffffffffffffffff021916908373ffffffffffffffffffffffffffffffffffffffff16021790555060a08201518160040160146101000a81548160ff0219169083151502179055509050507fecf0ba6e82dd1bc219cd41c0ec76dfdda18071309394fd9e5d8542e62f355ff560015483833360006040516103f49594939291906109e9565b60405180910390a15050565b60015481565b82805461041290610867565b90600052602060002090601f016020900481019282610434576000855561047b565b82601f1061044d57805160ff191683800117855561047b565b8280016001018555821561047b579182015b8281111561047a57825182559160200191906001019061045f565b5b509050610488919061048c565b5090565b5b808211156104a557600081600090555060010161048d565b5090565b6000604051905090565b600080fd5b600080fd5b6000819050919050565b6104d0816104bd565b81146104db57600080fd5b50565b6000813590506104ed816104c7565b92915050565b600060208284031215610509576105086104b3565b5b6000610517848285016104de565b91505092915050565b610529816104bd565b82525050565b600081519050919050565b600082825260208201905092915050565b60005b8381101561056957808201518184015260208101905061054e565b83811115610578576000848401525b50505050565b6000601f19601f8301169050919050565b600061059a8261052f565b6105a4818561053a565b93506105b481856020860161054b565b6105bd8161057e565b840191505092915050565b600073ffffffffffffffffffffffffffffffffffffffff82169050919050565b60006105f3826105c8565b9050919050565b610603816105e8565b82525050565b60008115159050919050565b61061e81610609565b82525050565b600060c0820190506106396000830189610520565b818103602083015261064b818861058f565b905061065a6040830187610520565b61066760608301866105fa565b61067460808301856105fa565b61068160a0830184610615565b979650505050505050565b600080fd5b600080fd5b7f4e487b7100000000000000000000000000000000000000000000000000000000600052604160045260246000fd5b6106ce8261057e565b810181811067ffffffffffffffff821117156106ed576106ec610696565b5b80604052505050565b60006107006104a9565b905061070c82826106c5565b919050565b600067ffffffffffffffff82111561072c5761072b610696565b5b6107358261057e565b9050602081019050919050565b82818337600083830152505050565b600061076461075f84610711565b6106f6565b9050828152602081018484840111156107805761077f610691565b5b61078b848285610742565b509392505050565b600082601f8301126107a8576107a761068c565b5b81356107b8848260208601610751565b91505092915050565b600080604083850312156107d8576107d76104b3565b5b600083013567ffffffffffffffff8111156107f6576107f56104b8565b5b61080285828601610793565b9250506020610813858286016104de565b9150509250929050565b60006020820190506108326000830184610520565b92915050565b7f4e487b7100000000000000000000000000000000000000000000000000000000600052602260045260246000fd5b6000600282049050600182168061087f57607f821691505b6020821081141561089357610892610838565b5b50919050565b7f4e616d652063616e6e6f7420626520656d707479000000000000000000000000600082015250565b60006108cf60148361053a565b91506108da82610899565b602082019050919050565b600060208201905081810360008301526108fe816108c2565b9050919050565b7f5072696365206d7573742062652067726561746572207468616e207a65726f00600082015250565b600061093b601f8361053a565b915061094682610905565b602082019050919050565b6000602082019050818103600083015261096a8161092e565b9050919050565b7f4e487b7100000000000000000000000000000000000000000000000000000000600052601160045260246000fd5b60006109ab826104bd565b91507fffffffffffffffffffffffffffffffffffffffffffffffffffffffffffffffff8214156109de576109dd610971565b5b600182019050919050565b600060a0820190506109fe6000830188610520565b8181036020830152610a10818761058f565b9050610a1f6040830186610520565b610a2c60608301856105fa565b610a396080830184610615565b969550505050505056fea264697066735822122023f628d1419a2d6c13ba1bc2f6050f1f92709be95d209f2b75bb6ac937d6f00c64736f6c634300080a0033",
  "immutableReferences": {},
  "source": "// SPDX-License-Identifier: MIT\r\npragma solidity ^0.8.0;\r\n\r\ncontract Food {\r\n    struct FoodItem {\r\n        uint id;\r\n        string name;\r\n        uint price;\r\n        address seller;\r\n        address buyer;\r\n        bool isSold;\r\n    }\r\n\r\n    mapping(uint => FoodItem) public foodItems;\r\n    uint public foodItemCount;\r\n\r\n    event FoodItemCreated(uint id, string name, uint price, address seller, bool isSold);\r\n    event FoodItemPurchased(uint id, address buyer);\r\n\r\n    function createFoodItem(string memory _name, uint _price) public {\r\n        require(bytes(_name).length > 0, \"Name cannot be empty\");\r\n        require(_price > 0, \"Price must be greater than zero\");\r\n\r\n        foodItemCount++;\r\n        foodItems[foodItemCount] = FoodItem(foodItemCount, _name, _price, msg.sender, address(0), false);\r\n\r\n        emit FoodItemCreated(foodItemCount, _name, _price, msg.sender, false);\r\n    }\r\n\r\n\r\n}\r\n",
  "sourcePath": "C:\\Users\\sayfs\\Desktop\\Web3-food-market\\contracts\\Food.sol",
  "compiler": {
    "name": "solc",
    "version": "0.8.10+commit.fc410830.Emscripten.clang"
  },
  "schemaVersion": "3.4.16",
  "updatedAt": "2024-07-17T15:44:52.339Z",
  "devdoc": {
    "kind": "dev",
    "methods": {},
    "version": 1
  },
  "userdoc": {
    "kind": "user",
    "methods": {},
    "version": 1
  }
}