{
  "contractName": "Food",
  "abi": [
    {
      "anonymous": false,
      "inputs": [
        {
          "indexed": false,
          "internalType": "uint256",
          "name": "id",
          "type": "uint256"
        },
        {
          "indexed": false,
          "internalType": "string",
          "name": "name",
          "type": "string"
        },
        {
          "indexed": false,
          "internalType": "uint256",
          "name": "price",
          "type": "uint256"
        },
        {
          "indexed": false,
          "internalType": "address",
          "name": "seller",
          "type": "address"
        }
      ],
      "name": "FoodItemCreated",
      "type": "event"
    },
    {
      "anonymous": false,
      "inputs": [
        {
          "indexed": false,
          "internalType": "uint256",
          "name": "id",
          "type": "uint256"
        },
        {
          "indexed": false,
          "internalType": "address",
          "name": "buyer",
          "type": "address"
        }
      ],
      "name": "FoodItemPurchased",
      "type": "event"
    },
    {
      "inputs": [],
      "name": "foodItemCount",
      "outputs": [
        {
          "internalType": "uint256",
          "name": "",
          "type": "uint256"
        }
      ],
      "stateMutability": "view",
      "type": "function"
    },
    {
      "inputs": [
        {
          "internalType": "uint256",
          "name": "",
          "type": "uint256"
        }
      ],
      "name": "foodItems",
      "outputs": [
        {
          "internalType": "uint256",
          "name": "id",
          "type": "uint256"
        },
        {
          "internalType": "string",
          "name": "name",
          "type": "string"
        },
        {
          "internalType": "uint256",
          "name": "price",
          "type": "uint256"
        },
        {
          "internalType": "address payable",
          "name": "seller",
          "type": "address"
        },
        {
          "internalType": "address",
          "name": "buyer",
          "type": "address"
        },
        {
          "internalType": "bool",
          "name": "isSold",
          "type": "bool"
        }
      ],
      "stateMutability": "view",
      "type": "function"
    },
    {
      "inputs": [
        {
          "internalType": "string",
          "name": "_name",
          "type": "string"
        },
        {
          "internalType": "uint256",
          "name": "_price",
          "type": "uint256"
        }
      ],
      "name": "createFoodItem",
      "outputs": [],
      "stateMutability": "nonpayable",
      "type": "function"
    },
    {
      "inputs": [
        {
          "internalType": "uint256",
          "name": "_itemId",
          "type": "uint256"
        }
      ],
      "name": "purchaseFoodItem",
      "outputs": [],
      "stateMutability": "payable",
      "type": "function"
    }
  ],
  "bytecode": "0x608060405234801561001057600080fd5b50610eaa806100206000396000f3fe60806040526004361061003f5760003560e01c80630ac52e651461004457806321bf7bd014610086578063432b8b9f146100a2578063872ce6dc146100cb575b600080fd5b34801561005057600080fd5b5061006b60048036038101906100669190610745565b6100f6565b60405161007d96959493929190610897565b60405180910390f35b6100a0600480360381019061009b9190610745565b610207565b005b3480156100ae57600080fd5b506100c960048036038101906100c49190610a34565b61041b565b005b3480156100d757600080fd5b506100e0610652565b6040516100ed9190610a90565b60405180910390f35b600060205280600052604060002060009150905080600001549080600101805461011f90610ada565b80601f016020809104026020016040519081016040528092919081815260200182805461014b90610ada565b80156101985780601f1061016d57610100808354040283529160200191610198565b820191906000526020600020905b81548152906001019060200180831161017b57829003601f168201915b5050505050908060020154908060030160009054906101000a900473ffffffffffffffffffffffffffffffffffffffff16908060040160009054906101000a900473ffffffffffffffffffffffffffffffffffffffff16908060040160149054906101000a900460ff16905086565b60008060008381526020019081526020016000209050600081600001541180156102375750600154816000015411155b610276576040517f08c379a000000000000000000000000000000000000000000000000000000000815260040161026d90610b58565b60405180910390fd5b8060040160149054906101000a900460ff16156102c8576040517f08c379a00000000000000000000000000000000000000000000000000000000081526004016102bf90610bc4565b60405180910390fd5b806002015434101561030f576040517f08c379a000000000000000000000000000000000000000000000000000000000815260040161030690610c30565b60405180910390fd5b338160040160006101000a81548173ffffffffffffffffffffffffffffffffffffffff021916908373ffffffffffffffffffffffffffffffffffffffff16021790555060018160040160146101000a81548160ff0219169083151502179055508060030160009054906101000a900473ffffffffffffffffffffffffffffffffffffffff1673ffffffffffffffffffffffffffffffffffffffff166108fc82600201549081150290604051600060405180830381858888f193505050501580156103dd573d6000803e3d6000fd5b507f62e9cc17686cca82304a9d929259f975ca0cb6f10e288877b57de8a806419c0d823360405161040f929190610c50565b60405180910390a15050565b600082511161045f576040517f08c379a000000000000000000000000000000000000000000000000000000000815260040161045690610cc5565b60405180910390fd5b600081116104a2576040517f08c379a000000000000000000000000000000000000000000000000000000000815260040161049990610d31565b60405180910390fd5b6040518060c0016040528060015481526020018381526020018281526020013373ffffffffffffffffffffffffffffffffffffffff168152602001600073ffffffffffffffffffffffffffffffffffffffff16815260200160001515815250600080600154815260200190815260200160002060008201518160000155602082015181600101908051906020019061053b929190610658565b506040820151816002015560608201518160030160006101000a81548173ffffffffffffffffffffffffffffffffffffffff021916908373ffffffffffffffffffffffffffffffffffffffff16021790555060808201518160040160006101000a81548173ffffffffffffffffffffffffffffffffffffffff021916908373ffffffffffffffffffffffffffffffffffffffff16021790555060a08201518160040160146101000a81548160ff0219169083151502179055509050507f9366719d497b7e279a3180c27d99ca3ebf47f485615cdc8c89aa8e05d94f092660015483833360405161062e9493929190610db0565b60405180910390a16001600081548092919061064990610e2b565b91905055505050565b60015481565b82805461066490610ada565b90600052602060002090601f01602090048101928261068657600085556106cd565b82601f1061069f57805160ff19168380011785556106cd565b828001600101855582156106cd579182015b828111156106cc5782518255916020019190600101906106b1565b5b5090506106da91906106de565b5090565b5b808211156106f75760008160009055506001016106df565b5090565b6000604051905090565b600080fd5b600080fd5b6000819050919050565b6107228161070f565b811461072d57600080fd5b50565b60008135905061073f81610719565b92915050565b60006020828403121561075b5761075a610705565b5b600061076984828501610730565b91505092915050565b61077b8161070f565b82525050565b600081519050919050565b600082825260208201905092915050565b60005b838110156107bb5780820151818401526020810190506107a0565b838111156107ca576000848401525b50505050565b6000601f19601f8301169050919050565b60006107ec82610781565b6107f6818561078c565b935061080681856020860161079d565b61080f816107d0565b840191505092915050565b600073ffffffffffffffffffffffffffffffffffffffff82169050919050565b60006108458261081a565b9050919050565b6108558161083a565b82525050565b60006108668261081a565b9050919050565b6108768161085b565b82525050565b60008115159050919050565b6108918161087c565b82525050565b600060c0820190506108ac6000830189610772565b81810360208301526108be81886107e1565b90506108cd6040830187610772565b6108da606083018661084c565b6108e7608083018561086d565b6108f460a0830184610888565b979650505050505050565b600080fd5b600080fd5b7f4e487b7100000000000000000000000000000000000000000000000000000000600052604160045260246000fd5b610941826107d0565b810181811067ffffffffffffffff821117156109605761095f610909565b5b80604052505050565b60006109736106fb565b905061097f8282610938565b919050565b600067ffffffffffffffff82111561099f5761099e610909565b5b6109a8826107d0565b9050602081019050919050565b82818337600083830152505050565b60006109d76109d284610984565b610969565b9050828152602081018484840111156109f3576109f2610904565b5b6109fe8482856109b5565b509392505050565b600082601f830112610a1b57610a1a6108ff565b5b8135610a2b8482602086016109c4565b91505092915050565b60008060408385031215610a4b57610a4a610705565b5b600083013567ffffffffffffffff811115610a6957610a6861070a565b5b610a7585828601610a06565b9250506020610a8685828601610730565b9150509250929050565b6000602082019050610aa56000830184610772565b92915050565b7f4e487b7100000000000000000000000000000000000000000000000000000000600052602260045260246000fd5b60006002820490506001821680610af257607f821691505b60208210811415610b0657610b05610aab565b5b50919050565b7f496e76616c6964206974656d2069640000000000000000000000000000000000600082015250565b6000610b42600f8361078c565b9150610b4d82610b0c565b602082019050919050565b60006020820190508181036000830152610b7181610b35565b9050919050565b7f4974656d20697320616c726561647920736f6c64000000000000000000000000600082015250565b6000610bae60148361078c565b9150610bb982610b78565b602082019050919050565b60006020820190508181036000830152610bdd81610ba1565b9050919050565b7f496e73756666696369656e742066756e64730000000000000000000000000000600082015250565b6000610c1a60128361078c565b9150610c2582610be4565b602082019050919050565b60006020820190508181036000830152610c4981610c0d565b9050919050565b6000604082019050610c656000830185610772565b610c72602083018461086d565b9392505050565b7f4e616d652063616e6e6f7420626520656d707479000000000000000000000000600082015250565b6000610caf60148361078c565b9150610cba82610c79565b602082019050919050565b60006020820190508181036000830152610cde81610ca2565b9050919050565b7f5072696365206d7573742062652067726561746572207468616e207a65726f00600082015250565b6000610d1b601f8361078c565b9150610d2682610ce5565b602082019050919050565b60006020820190508181036000830152610d4a81610d0e565b9050919050565b6000819050919050565b6000610d76610d71610d6c8461081a565b610d51565b61081a565b9050919050565b6000610d8882610d5b565b9050919050565b6000610d9a82610d7d565b9050919050565b610daa81610d8f565b82525050565b6000608082019050610dc56000830187610772565b8181036020830152610dd781866107e1565b9050610de66040830185610772565b610df36060830184610da1565b95945050505050565b7f4e487b7100000000000000000000000000000000000000000000000000000000600052601160045260246000fd5b6000610e368261070f565b91507fffffffffffffffffffffffffffffffffffffffffffffffffffffffffffffffff821415610e6957610e68610dfc565b5b60018201905091905056fea2646970667358221220d7e3ae203dc8a17f3f86eef2c894d7d371ed55e59303fc2b1df7a00d3604969b64736f6c634300080a0033",
  "immutableReferences": {},
  "source": "// SPDX-License-Identifier: MIT\r\npragma solidity ^0.8.0;\r\n\r\ncontract Food {\r\n    struct FoodItem {\r\n        uint id;\r\n        string name;\r\n        uint price;\r\n        address payable seller;\r\n        address buyer;\r\n        bool isSold;\r\n    }\r\n\r\n    mapping(uint => FoodItem) public foodItems;\r\n    uint public foodItemCount;\r\n\r\n    event FoodItemCreated(uint id, string name, uint price, address seller);\r\n    event FoodItemPurchased(uint id, address buyer);\r\n\r\n    function createFoodItem(string memory _name, uint _price) public {\r\n        require(bytes(_name).length > 0, \"Name cannot be empty\");\r\n        require(_price > 0, \"Price must be greater than zero\");\r\n\r\n\r\n        foodItems[foodItemCount] = FoodItem(foodItemCount, _name, _price, payable(msg.sender), address(0), false);\r\n\r\n        emit FoodItemCreated(foodItemCount, _name, _price, payable(msg.sender));\r\n\r\n        foodItemCount++;\r\n    }\r\n\r\n    function purchaseFoodItem(uint _itemId) public payable {\r\n        FoodItem storage item = foodItems[_itemId];\r\n\r\n        require(item.id > 0 && item.id <= foodItemCount, \"Invalid item id\");\r\n        require(!item.isSold, \"Item is already sold\");\r\n        require(msg.value >= item.price, \"Insufficient funds\");\r\n\r\n        item.buyer = msg.sender;\r\n        item.isSold = true;\r\n        item.seller.transfer(item.price); // Transfer the price to the seller\r\n        emit FoodItemPurchased(_itemId, msg.sender);\r\n    }\r\n}\r\n",
  "sourcePath": "C:\\Users\\sayfs\\Desktop\\Web3 food market\\contracts\\Food.sol",
  "compiler": {
    "name": "solc",
    "version": "0.8.10+commit.fc410830.Emscripten.clang"
  },
  "schemaVersion": "3.4.16",
  "updatedAt": "2024-07-23T09:53:59.602Z",
  "devdoc": {
    "kind": "dev",
    "methods": {},
    "version": 1
  },
  "userdoc": {
    "kind": "user",
    "methods": {},
    "version": 1
  }
}